{
  "contractName": "P2pLoan",
  "abi": [
    {
      "inputs": [],
      "stateMutability": "nonpayable",
      "type": "constructor"
    },
    {
      "anonymous": false,
      "inputs": [
        {
          "indexed": true,
          "internalType": "uint256",
          "name": "loanId",
          "type": "uint256"
        },
        {
          "indexed": true,
          "internalType": "address",
          "name": "issuer",
          "type": "address"
        },
        {
          "indexed": false,
          "internalType": "uint256",
          "name": "maxAmount",
          "type": "uint256"
        },
        {
          "indexed": false,
          "internalType": "uint256",
          "name": "rate",
          "type": "uint256"
        },
        {
          "indexed": false,
          "internalType": "uint256",
          "name": "terms",
          "type": "uint256"
        }
      ],
      "name": "NewLoan",
      "type": "event"
    },
    {
      "anonymous": false,
      "inputs": [
        {
          "indexed": true,
          "internalType": "uint256",
          "name": "loanId",
          "type": "uint256"
        },
        {
          "indexed": false,
          "internalType": "uint256",
          "name": "interest",
          "type": "uint256"
        },
        {
          "indexed": false,
          "internalType": "uint256",
          "name": "principal",
          "type": "uint256"
        },
        {
          "indexed": false,
          "internalType": "uint256",
          "name": "payRound",
          "type": "uint256"
        }
      ],
      "name": "Payment",
      "type": "event"
    },
    {
      "anonymous": false,
      "inputs": [
        {
          "indexed": true,
          "internalType": "uint256",
          "name": "loanId",
          "type": "uint256"
        },
        {
          "indexed": true,
          "internalType": "address",
          "name": "to",
          "type": "address"
        },
        {
          "indexed": false,
          "internalType": "uint256",
          "name": "interest",
          "type": "uint256"
        },
        {
          "indexed": false,
          "internalType": "uint256",
          "name": "principal",
          "type": "uint256"
        },
        {
          "indexed": false,
          "internalType": "uint256",
          "name": "payRound",
          "type": "uint256"
        }
      ],
      "name": "PaymentReceive",
      "type": "event"
    },
    {
      "anonymous": false,
      "inputs": [
        {
          "indexed": true,
          "internalType": "uint256",
          "name": "loanId",
          "type": "uint256"
        },
        {
          "indexed": true,
          "internalType": "address",
          "name": "lender",
          "type": "address"
        },
        {
          "indexed": false,
          "internalType": "uint256",
          "name": "amount",
          "type": "uint256"
        },
        {
          "indexed": false,
          "internalType": "uint256",
          "name": "subIndex",
          "type": "uint256"
        }
      ],
      "name": "SubLoan",
      "type": "event"
    },
    {
      "inputs": [],
      "name": "total",
      "outputs": [
        {
          "internalType": "uint256",
          "name": "",
          "type": "uint256"
        }
      ],
      "stateMutability": "view",
      "type": "function",
      "constant": true
    },
    {
      "inputs": [
        {
          "internalType": "uint256",
          "name": "maxAmount",
          "type": "uint256"
        },
        {
          "internalType": "uint256",
          "name": "rate",
          "type": "uint256"
        },
        {
          "internalType": "uint256",
          "name": "terms",
          "type": "uint256"
        }
      ],
      "name": "registerLoan",
      "outputs": [
        {
          "internalType": "uint256",
          "name": "",
          "type": "uint256"
        }
      ],
      "stateMutability": "nonpayable",
      "type": "function"
    },
    {
      "inputs": [
        {
          "internalType": "uint256",
          "name": "loanId",
          "type": "uint256"
        },
        {
          "internalType": "uint256",
          "name": "amount",
          "type": "uint256"
        }
      ],
      "name": "takeLoan",
      "outputs": [],
      "stateMutability": "nonpayable",
      "type": "function"
    },
    {
      "inputs": [
        {
          "internalType": "uint256",
          "name": "loanId",
          "type": "uint256"
        }
      ],
      "name": "makePayment",
      "outputs": [],
      "stateMutability": "nonpayable",
      "type": "function"
    },
    {
      "inputs": [],
      "name": "getLoans",
      "outputs": [
        {
          "components": [
            {
              "internalType": "address",
              "name": "issuer",
              "type": "address"
            },
            {
              "internalType": "uint256",
              "name": "maxAmount",
              "type": "uint256"
            },
            {
              "internalType": "uint256",
              "name": "rate",
              "type": "uint256"
            },
            {
              "internalType": "uint256",
              "name": "terms",
              "type": "uint256"
            },
            {
              "internalType": "uint256",
              "name": "amount",
              "type": "uint256"
            },
            {
              "internalType": "uint256",
              "name": "payRound",
              "type": "uint256"
            }
          ],
          "internalType": "struct P2pLoan.LoanTerm[]",
          "name": "",
          "type": "tuple[]"
        }
      ],
      "stateMutability": "view",
      "type": "function",
      "constant": true
    }
  ],
  "bytecode": "0x60806040526000805534801561001457600080fd5b50611141806100246000396000f3fe608060405234801561001057600080fd5b50600436106100575760003560e01c80632ddbd13a1461005c5780633ae35e551461007a5780635114cb52146100aa578063a3183125146100c6578063aa4a8711146100e2575b600080fd5b610064610100565b60405161007191906109a2565b60405180910390f35b610094600480360381019061008f91906109ee565b610106565b6040516100a191906109a2565b60405180910390f35b6100c460048036038101906100bf9190610a41565b610278565b005b6100e060048036038101906100db9190610a6e565b610645565b005b6100ea6108a2565b6040516100f79190610c28565b60405180910390f35b60005481565b6000806040518060c001604052803373ffffffffffffffffffffffffffffffffffffffff1681526020018681526020018581526020018481526020016000815260200160008152509050600181908060018154018082558091505060019003906000526020600020906006020160009091909190915060008201518160000160006101000a81548173ffffffffffffffffffffffffffffffffffffffff021916908373ffffffffffffffffffffffffffffffffffffffff1602179055506020820151816001015560408201518160020155606082015181600301556080820151816004015560a0820151816005015550503373ffffffffffffffffffffffffffffffffffffffff166000547f912c5098d4191cd5fa591f05f8aa968a767d528667ca1e75bc14eaf0641aeef7836040015184606001518960405161024c93929190610c4a565b60405180910390a360008081548092919061026690610cb0565b91905055506000549150509392505050565b60005481106102bc576040517f08c379a00000000000000000000000000000000000000000000000000000000081526004016102b390610d55565b60405180910390fd5b6000600182815481106102d2576102d1610d75565b5b906000526020600020906006020190508060000160009054906101000a900473ffffffffffffffffffffffffffffffffffffffff1673ffffffffffffffffffffffffffffffffffffffff163373ffffffffffffffffffffffffffffffffffffffff1614610374576040517f08c379a000000000000000000000000000000000000000000000000000000000815260040161036b90610df0565b60405180910390fd5b600060026000848152602001908152602001600020805480602002602001604051908101604052809291908181526020016000905b828210156104455783829060005260206000209060030201604051806060016040529081600082015481526020016001820160009054906101000a900473ffffffffffffffffffffffffffffffffffffffff1673ffffffffffffffffffffffffffffffffffffffff1673ffffffffffffffffffffffffffffffffffffffff168152602001600282015481525050815260200190600101906103a9565b50505050905060008151905060008111610494576040517f08c379a000000000000000000000000000000000000000000000000000000000815260040161048b90610e5c565b60405180910390fd5b82600301548360050154106104de576040517f08c379a00000000000000000000000000000000000000000000000000000000081526004016104d590610ec8565b60405180910390fd5b600183600501546104ef9190610ee8565b836005018190555060008060005b838110156105fc57600085828151811061051a57610519610d75565b5b60200260200101519050600087600301546064896002015484604001516105419190610f1c565b61054b9190610fa5565b6105559190610fa5565b905060008860030154836040015161056d9190610fa5565b9050826020015173ffffffffffffffffffffffffffffffffffffffff168a7f5f4fc4438a76723946a04b8a174d814d6a3bc375d4f1510ee495943d5238dbaf84848d600501546040516105c293929190610c4a565b60405180910390a380856105d69190610ee8565b945081866105e49190610ee8565b955050505080806105f490610cb0565b9150506104fd565b50857f6cb78aec31d6ac06230f80ae50b53cc807470d2d86c6da5f2f257ea0ddf0e80b8383886005015460405161063593929190610c4a565b60405180910390a2505050505050565b6000548210610689576040517f08c379a000000000000000000000000000000000000000000000000000000000815260040161068090610d55565b60405180910390fd5b600081116106cc576040517f08c379a00000000000000000000000000000000000000000000000000000000081526004016106c390611022565b60405180910390fd5b6000600183815481106106e2576106e1610d75565b5b906000526020600020906006020190506000816004015482600101546107089190611042565b90508083111561074d576040517f08c379a0000000000000000000000000000000000000000000000000000000008152600401610744906110c2565b60405180910390fd5b600060405180606001604052808681526020013373ffffffffffffffffffffffffffffffffffffffff168152602001858152509050600260008681526020019081526020016000208190806001815401808255809150506001900390600052602060002090600302016000909190919091506000820151816000015560208201518160010160006101000a81548173ffffffffffffffffffffffffffffffffffffffff021916908373ffffffffffffffffffffffffffffffffffffffff16021790555060408201518160020155505083836004015461082c9190610ee8565b83600401819055503373ffffffffffffffffffffffffffffffffffffffff16857f36ab0786607a978c9d60d9ee5777a4579f5fc9f3662b60bc29628570a945d8fd86600260008a8152602001908152602001600020805490506040516108939291906110e2565b60405180910390a35050505050565b60606001805480602002602001604051908101604052809291908181526020016000905b8282101561098057838290600052602060002090600602016040518060c00160405290816000820160009054906101000a900473ffffffffffffffffffffffffffffffffffffffff1673ffffffffffffffffffffffffffffffffffffffff1673ffffffffffffffffffffffffffffffffffffffff16815260200160018201548152602001600282015481526020016003820154815260200160048201548152602001600582015481525050815260200190600101906108c6565b50505050905090565b6000819050919050565b61099c81610989565b82525050565b60006020820190506109b76000830184610993565b92915050565b600080fd5b6109cb81610989565b81146109d657600080fd5b50565b6000813590506109e8816109c2565b92915050565b600080600060608486031215610a0757610a066109bd565b5b6000610a15868287016109d9565b9350506020610a26868287016109d9565b9250506040610a37868287016109d9565b9150509250925092565b600060208284031215610a5757610a566109bd565b5b6000610a65848285016109d9565b91505092915050565b60008060408385031215610a8557610a846109bd565b5b6000610a93858286016109d9565b9250506020610aa4858286016109d9565b9150509250929050565b600081519050919050565b600082825260208201905092915050565b6000819050602082019050919050565b600073ffffffffffffffffffffffffffffffffffffffff82169050919050565b6000610b0582610ada565b9050919050565b610b1581610afa565b82525050565b610b2481610989565b82525050565b60c082016000820151610b406000850182610b0c565b506020820151610b536020850182610b1b565b506040820151610b666040850182610b1b565b506060820151610b796060850182610b1b565b506080820151610b8c6080850182610b1b565b5060a0820151610b9f60a0850182610b1b565b50505050565b6000610bb18383610b2a565b60c08301905092915050565b6000602082019050919050565b6000610bd582610aae565b610bdf8185610ab9565b9350610bea83610aca565b8060005b83811015610c1b578151610c028882610ba5565b9750610c0d83610bbd565b925050600181019050610bee565b5085935050505092915050565b60006020820190508181036000830152610c428184610bca565b905092915050565b6000606082019050610c5f6000830186610993565b610c6c6020830185610993565b610c796040830184610993565b949350505050565b7f4e487b7100000000000000000000000000000000000000000000000000000000600052601160045260246000fd5b6000610cbb82610989565b91507fffffffffffffffffffffffffffffffffffffffffffffffffffffffffffffffff8203610ced57610cec610c81565b5b600182019050919050565b600082825260208201905092915050565b7f6f75745f6f665f696e6465780000000000000000000000000000000000000000600082015250565b6000610d3f600c83610cf8565b9150610d4a82610d09565b602082019050919050565b60006020820190508181036000830152610d6e81610d32565b9050919050565b7f4e487b7100000000000000000000000000000000000000000000000000000000600052603260045260246000fd5b7f2169737375657200000000000000000000000000000000000000000000000000600082015250565b6000610dda600783610cf8565b9150610de582610da4565b602082019050919050565b60006020820190508181036000830152610e0981610dcd565b9050919050565b7f6e6f5f6c656e6465720000000000000000000000000000000000000000000000600082015250565b6000610e46600983610cf8565b9150610e5182610e10565b602082019050919050565b60006020820190508181036000830152610e7581610e39565b9050919050565b7f6c6f616e436c6f73656400000000000000000000000000000000000000000000600082015250565b6000610eb2600a83610cf8565b9150610ebd82610e7c565b602082019050919050565b60006020820190508181036000830152610ee181610ea5565b9050919050565b6000610ef382610989565b9150610efe83610989565b9250828201905080821115610f1657610f15610c81565b5b92915050565b6000610f2782610989565b9150610f3283610989565b9250817fffffffffffffffffffffffffffffffffffffffffffffffffffffffffffffffff0483118215151615610f6b57610f6a610c81565b5b828202905092915050565b7f4e487b7100000000000000000000000000000000000000000000000000000000600052601260045260246000fd5b6000610fb082610989565b9150610fbb83610989565b925082610fcb57610fca610f76565b5b828204905092915050565b7f217a65726f5f696e707574000000000000000000000000000000000000000000600082015250565b600061100c600b83610cf8565b915061101782610fd6565b602082019050919050565b6000602082019050818103600083015261103b81610fff565b9050919050565b600061104d82610989565b915061105883610989565b92508282039050818111156110705761106f610c81565b5b92915050565b7f216f75745f6f665f6d6178000000000000000000000000000000000000000000600082015250565b60006110ac600b83610cf8565b91506110b782611076565b602082019050919050565b600060208201905081810360008301526110db8161109f565b9050919050565b60006040820190506110f76000830185610993565b6111046020830184610993565b939250505056fea2646970667358221220cf7ee6124550658877d93dae35d8a2aa0701a9850b5a893fefcb9f6ee7821beb64736f6c63430008100033",
  "immutableReferences": {},
  "source": "// SPDX-License-Identifier: MIT\npragma solidity ^0.8.0;\n\n//import \"@openzeppelin/contracts/access/Ownable.sol\";\n// import \"@openzeppelin/contracts/token/ERC20/IERC20.sol\";\n\ncontract P2pLoan {\n\n    uint public total = 0;\n    LoanTerm[] loanList;\n    mapping(uint => LenderTerm[]) lenderListMap;\n\n    mapping(address => uint[]) userLoans;\n    mapping(address => uint[]) userLenders;\n\n    struct LoanTerm {\n        address issuer;\n        uint maxAmount;\n        uint rate;\n        uint terms;\n        uint amount;\n        uint payRound;\n    }\n\n    struct LenderTerm {\n        uint loanId;\n        address lender;\n        uint amount;\n    }\n\n    event NewLoan(uint indexed loanId,address indexed issuer, uint maxAmount, uint rate, uint terms);\n    event SubLoan(uint indexed loanId,address indexed lender, uint amount, uint subIndex);\n\n    event Payment(uint indexed loanId,uint interest, uint principal, uint payRound);\n    event PaymentReceive(uint indexed loanId,address indexed to, uint interest, uint principal ,uint payRound);\n\n\n//    event PrincipalPay(uint indexed loanId,uint amount);\n//    event PrincipalReceive(address indexed to,uint indexed loanId,uint amount);\n\n//    event InterestPay(uint indexed loanId,uint amount, uint payRound);\n//    event InterestReceive(address indexed to,uint indexed loanId,uint amount,uint payRound);\n\n    constructor() {\n    }\n\n    function registerLoan(uint maxAmount, uint rate, uint terms) public returns (uint) {\n        LoanTerm memory loan = LoanTerm(msg.sender,maxAmount,rate,terms, 0,0);\n        loanList.push(loan);\n        emit NewLoan(total,msg.sender, loan.rate,loan.terms, maxAmount);\n        total++;\n        return total;\n    }\n\n    function takeLoan(uint loanId, uint amount) public {\n        require(loanId<total,\"out_of_index\");\n        require(amount > 0,\"!zero_input\");\n        LoanTerm storage loan = loanList[loanId];\n        uint leftAmount = loan.maxAmount - loan.amount;\n        require(amount <= leftAmount,\"!out_of_max\");\n\n        LenderTerm memory lender = LenderTerm(loanId, msg.sender, amount);\n        lenderListMap[loanId].push(lender);\n        loan.amount = loan.amount + amount;\n        emit SubLoan(loanId,msg.sender,amount, lenderListMap[loanId].length);\n        //todo send token\n    }\n\n    function makePayment(uint loanId) public {\n        require(loanId<total,\"out_of_index\");\n        LoanTerm storage loan = loanList[loanId];\n        require(msg.sender == loan.issuer,\"!issuer\");\n        LenderTerm[] memory lenders =  lenderListMap[loanId];\n        uint len = lenders.length;\n        require(len>0,\"no_lender\");\n        require(loan.payRound < loan.terms,\"loanClosed\");\n        loan.payRound = loan.payRound +1;\n\n        uint allInterest = 0;\n        uint allPrincipal = 0;\n        for (uint i = 0; i < len; i++) {\n            LenderTerm memory lender = lenders[i];\n            uint interest = lender.amount*loan.rate/100/loan.terms;\n            uint principal = lender.amount/loan.terms;\n            emit PaymentReceive( loanId, lender.lender,interest, principal ,loan.payRound);\n            allPrincipal += principal;\n            allInterest += interest;\n        }\n        emit Payment(loanId,allInterest, allPrincipal, loan.payRound);\n    }\n\n//    function makePayment(uint loanId) public {\n//        require(loanId<total,\"out_of_index\");\n//        LoanTerm storage loan = loanList[loanId];\n//        require(msg.sender == loan.issuer,\"!issuer\");\n//        LenderTerm[] memory lenders =  lenderListMap[loanId];\n//        uint len = lenders.length;\n//        require(len>0,\"no_lender\");\n//\n//        require(loan.payRound == 0,\"loanActived\");\n//        require(loan.payRound < loan.terms,\"loanClosed\");\n//        loan.payRound = loan.payRound +1;\n//\n//        if(loan.payRound < loan.terms){\n//            uint amount = loan.amount;\n//            uint interest = amount*loan.rate/100/loan.terms;\n//            uint pInterest = 0;\n//            for (uint i = 0; i < len-1; i++) {\n//                LenderTerm memory lender = lenders[i];\n//                uint cInterest = interest * lender.amount/amount;\n//                emit PaymentReceive(lender.lender, loanId, cInterest,loan.payRound);\n//                pInterest = pInterest + cInterest;\n//            }\n//            emit PrincipalPay(loanId,loan.amount);\n//\n//            LenderTerm memory lastLender = lenders[len-1];\n//\n//        }else{\n//            for (uint i = 0; i < len; i++) {\n//                LenderTerm memory lender = lenders[i];\n//                emit PrincipalReceive(lender.lender, loanId, lender.amount);\n//            }\n//            emit PrincipalPay(loanId,loan.amount);\n//        }\n//    }\n//\n//    function makePrincipalPayment(uint loanId) public {\n//        require(loanId<total,\"out_of_index\");\n//        LoanTerm memory loan = loanList[loanId];\n//        require(loan.payRound == loan.terms,\"!Interest_done\");\n//        require(msg.sender == loan.issuer,\"!issuer\");\n//        LenderTerm[] memory lenders =  lenderListMap[loanId];\n//        uint len = lenders.length;\n//        require(len>0,\"no_lender\");\n//        for (uint i = 0; i < len; i++) {\n//            LenderTerm memory lender = lenders[i];\n//            //send\n//            emit PrincipalReceive(lender.lender, loanId, lender.amount);\n//        }\n//        emit PrincipalPay(loanId,loan.amount);\n//    }\n//\n//\n//    function makeInterestPayment(uint loanId) public {\n//        require(loanId<total,\"out_of_index\");\n//        LoanTerm storage loan = loanList[loanId];\n//        require(msg.sender == loan.issuer,\"!issuer\");\n//        LenderTerm[] memory lenders =  lenderListMap[loanId];\n//        uint len = lenders.length;\n//        require(len>0,\"no_lender\");\n//\n//        require(loan.payRound == 0,\"loanActived\");\n//        require(loan.payRound < loan.terms,\"loanClosed\");\n//\n//        uint amount = loan.amount;\n//        uint principal = amount*loan.rate/10000/loan.terms;\n//        uint payedPrinc = 0;\n//        for (uint i = 0; i < len-1; i++) {\n//            LenderTerm memory lender = lenders[i];\n//            uint cPrincipal = principal * lender.amount/amount;\n//            //send\n//            emit InterestReceive(lender.lender, loanId, cPrincipal,loan.payRound);\n//            payedPrinc = payedPrinc + cPrincipal;\n//        }\n//\n//        LenderTerm memory lastLender = lenders[len-1];\n//        loan.payRound = loan.payRound +1;\n//        //send\n//        emit InterestReceive(lastLender.lender, loanId, principal-payedPrinc,loan.payRound);\n//        emit InterestPay(loanId,amount,loan.payRound);\n//    }\n\n    function getLoans() public view returns (LoanTerm[] memory){\n        return loanList;\n    }\n\n\n}",
  "sourcePath": "/home/ec2-user/environment/smart_apple_contract/truffle/contracts/P2pLoan.sol",
  "compiler": {
    "name": "solc",
    "version": "0.8.16+commit.07a7930e.Emscripten.clang"
  },
  "schemaVersion": "3.4.10",
  "updatedAt": "2022-09-30T04:38:55.202Z",
  "networkType": "ethereum",
  "devdoc": {
    "kind": "dev",
    "methods": {},
    "version": 1
  },
  "userdoc": {
    "kind": "user",
    "methods": {},
    "version": 1
  }
}